:10000000F3C1000015C2000013C2000011C20000BD
:100010000FC200000DC200000BC2000010C30000A0
:1000200007C2000005C2000003C2000001C20000B8
:10003000FFC10000FDC10000FBC10000F9C10000CC
:10004000F7C10000F5C10000F3C10000F1C10000DC
:10005000EFC10000BE0DD90D590E690F880FB00F0A
:10006000B80F530F02CAFEA76E3400253032780055
:1000700025780046757365733A206C6F773D25309F
:10008000325820686967683D253032582065783DD0
:1000900025303258206C6F636B3D25303258004359
:1000A0006F666665657461626C6500256868752EAB
:1000B000256868752E256868752E25686875002581
:1000C000752E25752E25752E2575002573007061FA
:1000D000727365206572726F720025750A0025754E
:1000E0000A00485454502F312E3120323030204FE6
:1000F0004B0A436F6E6E656374696F6E3A20636C72
:100100006F73650A00436F6E74656E742D54797059
:10011000653A20746578742F6373733B206368615C
:10012000727365743D7574662D380A0A00436F6EEC
:1001300074656E742D547970653A20746578742FE7
:1001400068746D6C3B20636861727365743D75748F
:10015000662D380A0A00436F6E74656E742D5479EB
:1001600070653A206170706C69636174696F6E2F9D
:100170007868746D6C2B786D6C3B2063686172736A
:1001800065743D7574662D380A0A004361636865BD
:100190002D436F6E74726F6C3A206E6F2D636163C6
:1001A00068650A43616368652D436F6E74726F6C96
:1001B0003A206D7573742D726576616C6964617433
:1001C000650A436F6E74656E742D547970653A20BC
:1001D000746578742F706C61696E3B20636861721E
:1001E0007365743D7574662D380A0A00485454507E
:1001F0002F312E312034303020426164205265711D
:10020000756573740A436F6E6E656374696F6E3AD9
:1002100020636C6F73650A436F6E74656E742D5442
:100220007970653A20746578742F706C61696E3BE3
:1002300020636861727365743D7574662D380A00B9
:10024000436F6E74656E742D456E636F64696E677F
:100250003A20677A69700A004261642052657175BC
:100260006573740A00485454502F312E31203430B5
:10027000342046696C65204E6F7420466F756E643D
:100280000A436F6E6E656374696F6E3A20636C6FBC
:1002900073650A436F6E74656E742D547970653A98
:1002A00020746578742F706C61696E3B206368619F
:1002B000727365743D7574662D380A0046696C6505
:1002C000204E6F7420466F756E640A00436F6E7423
:1002D000656E742D4C656E6774683A20000A00697B
:1002E00064782E68740065636D643F0065636D64B7
:1002F0003F006964782E687400474554202F00251C
:10030000750A00706F72742025643A2030782530A9
:1003100032780025326868783A25326868783A255C
:10032000326868783A25326868783A2532686878A1
:100330003A253268687800253032783A25303278AC
:100340003A253032783A253032783A253032783AC8
:1003500025303278006420006675736500686F731D
:10036000746E616D650072657365740077647265A3
:1003700073657400696F006D6163006E65746D6113
:10038000736B0069700067770068656C7000766554
:100390007273696F6E00656570726F6D207265694A
:1003A0006E6974005503E803580354045D03920416
:1003B0006603B0046C03C30474033D1A7703581B2F
:1003C0007B030D1C8303521C8603C81B8903051481
:1003D0008E03551496030014000000006364696ED8
:1003E0006F70737578585B0011241FBECFE5D8E09D
:1003F000DEBFCDBF14BE88E10FB6F89481BD11BC3D
:100400000FBE19BE10E0A0E6B0E0E2E5FCE402C0D9
:1004100005900D92AE38B107D9F715E0AEE8B0E01F
:1004200001C01D92A031B107E1F703D00C94EE1E7C
:10043000E7CDCF93DF9380EB87BB78942FE088E103
:1004400090E00FB6F894A89581BD0FBE21BDA89588
:1004500012D10E94EC1C0E94971CC0E0D0E0A8952D
:100460000E94E21C8091F30082FF0BC0F89428E008
:1004700088E190E00FB6F894A89581BD0FBE21BD2C
:10048000FFCF81FFECCFF894FE010995E8CF582FFC
:10049000282F392FF90190E00AC08191982788E030
:1004A0002CE890FB96950EF492278A95D1F78E2F23
:1004B000851B861790F3892F08951F93CF93DF93A1
:1004C00010E0C0E0D0E0CE010E947624182788E03A
:1004D0009CE810FB16950EF419278A95D1F7219602
:1004E000C231D10581F7812FDF91CF911F910895FE
:1004F000EF92FF920F931F93CF93DF938B01EA014B
:10050000040F151F7C01E40EF51E06C02197C701DC
:10051000F80160810E947E24015010400894E10897
:10052000F108209799F7CDB7DEB7E6E00C941226D4
:10053000ABE0B0E0EEE9F2E00C94F6258E010A5F44
:100540001F4FC80164E670E046E050E00E94051FBE
:1005500080E090E0B80146E050E0CADF80ECE82E91
:1005600088EAF82EFB82EA8282E097E99D838C83F9
:100570008E010E5F1F4F86E090E0B80144E050E02E
:10058000B7DFFB82EA8282E091E09D838C838EE07C
:1005900090E0B80144E050E0ABDF8FEF9FEF9B832A
:1005A0008A838FEF90E09D838C838AE090E0B8018E
:1005B00044E050E09DDF81DF898382E190E0BE016D
:1005C0006F5F7F4F41E050E093DF2B96E6E00C94A5
:1005D0001226A1E0B0E0EFEEF2E00C94F9255CD534
:1005E0006CDF182FCE01019662E170E041E050E02F
:1005F0000E9466248981181709F09ADFCFD10E94E2
:10060000E81CFDD20E94EA132196E3E00C94152623
:100610008EB58C7F8EBD8EB584608EBD8FB58E7F7E
:100620008FBD8FB58D7F8FBD8EB588608EBD81EEFD
:1006300094E09BBD8ABD89B7806189BF08951F92F0
:100640000F920FB60F9211248F939F9381E08093A6
:1006500009059091F400892F8F5F8093F400823315
:1006600018F091539093F4009F918F910F900FBECB
:100670000F901F901895C49A80E58DB981E08EB9CE
:1006800008958FB9779BFECF8FB10895DC01159641
:10069000ED91FC91169713968D919C911497E81B00
:1006A000F90BE417F50708F4AF0120E030E00FC0C4
:1006B00011968D919C911297E80FF91FE20FF31F8D
:1006C0008491FB01E20FF31F80832F5F3F4F13964E
:1006D000ED91FC9114972417350750F3E40FF51FA3
:1006E0001496FC93EE931397CA0108958F929F92EC
:1006F000AF92BF92CF92DF92EF92FF921F93DF9360
:10070000CF93CDB7DEB729970FB6F894DEBF0FBEF3
:10071000CDBF5C0190E8E92E9FE7F92E6E010894A9
:10072000C11CD11C8AE0882E912C8C0E9D1EF701D5
:100730008491833281F597012F5F3F4FD601F901F4
:1007400084918D932F5F3F4FA815B905C1F7198587
:10075000C60168E09CDE1817F1F4C601B50146E059
:1007600050E00E94771F0097B1F487E090E00E946C
:10077000F01CFC019C010097C1F010828AE090E01F
:10078000E80EF91EF282E182148213828F8198852D
:10079000968385830AC0E0E8FFEFEE0EFF1EE114AA
:1007A000F10409F0C4CF20E030E0C90129960FB66A
:1007B000F894DEBF0FBECDBFCF91DF911F91FF90A8
:1007C000EF90DF90CF90BF90AF909F908F90089563
:1007D000A2E0B0E0EEEEF3E00C94F225DC015B0168
:1007E00001C011968C918032E1F300D000D000D08E
:1007F0002DB73EB72F5F3F4FEDB7FEB7B283A18352
:1008000080E790E0F90193838283CE01019695837E
:1008100084830E940D202DB73EB72A5F3F4F0FB64D
:10082000F8943EBF0FBE2DBF019719F02FEF3FEF99
:1008300036C0E980FA8000E010E03BE6C32E30E0ED
:10084000D32E00D000D000D0ADB7BEB71196C801EE
:10085000880F991F8A0D9B1DEDB7FEB79283818388
:100860001396DC92CE921297F801EE0DFF1D808157
:1008700014968C93149715961C920E94EC1F0F5F90
:100880001F4F2DB73EB72A5F3F4F0FB6F8943EBFBC
:100890000FBE2DBF00311105A1F620E230E0C901E5
:1008A0002296EAE00C940E26CF93DF9389E087BF6F
:1008B000E0E0F0E0B49187BFE3E0F0E0A49187BF0F
:1008C000E2E0F0E0349187BFE1E0F0E024918DB701
:1008D0009EB70E970FB6F8949EBF0FBE8DBFEDB7B3
:1008E000FEB73196CDB7DEB77A83698353834283EF
:1008F00083E790E095838483B6831782A08711866F
:1009000032871386248715860E94BE1F2DB73EB7F7
:10091000225F3F4F0FB6F8943EBF0FBE2DBFDF9151
:10092000CF91089500D000D000D0EDB7FEB731963A
:10093000ADB7BEB712967C936E93119753834283E3
:100940008FE990E0958384830E94BE1F2DB73EB748
:100950002A5F3F4F0FB6F8943EBF0FBE2DBF0895DC
:10096000FC018081882319F02FEF3FEF0AC08091AE
:10097000F30082608093F30080E18093050120E022
:1009800030E0C90108958091F30084608093F30002
:1009900080E18093050180E090E00895A4E0B0E05C
:1009A000E4EDF4E00C94F82589EF90E060E070E06D
:1009B00046E050E00E9466248E010F5F1F4FC80181
:1009C00066E070E044E050E00E94662489819A81EC
:1009D0009093DC028093DB028B819C819093DE02FA
:1009E0008093DD02C8016AE070E044E050E00E94BC
:1009F000662489819A819093D8028093D7028B8153
:100A00009C819093DA028093D902C8016EE070E075
:100A100044E050E00E94662489819A819093D40238
:100A20008093D3028B819C819093D6028093D502D0
:100A30002496E4E00C941426C4988FEF22DE80E420
:100A40009FE10197F1F7C49A0895FF920F931F93C6
:100A5000182FF62E042F282F30E0C9018F719070C7
:100A60004B977CF42076307085E0359527958A95F4
:100A7000E1F780918E0090E02817390711F0822F5E
:100A80000CD0C4981F71802F812BFBDD8F2DF9DDD9
:100A9000C49A1F910F91FF9008951F93182F8FE113
:100AA00063E040EAD2DF612F63708FE140E8CDDF81
:100AB00010938E001F9108951F93182FC4988AE7F2
:100AC000E0DD812FDEDDC49A1F9108950F931F93FF
:100AD000182F062F282F30E0C9018F7190704B9787
:100AE0007CF42076307095E0359527959A95E1F75E
:100AF00080918E0090E02817390711F0822FCDDF0A
:100B0000C4981F71812F8064BCDD802FBADDC49A28
:100B10001F910F9108951F93682F192F82E0D6DF40
:100B200083E0612FD3DF1F9108951F93682F192F42
:100B300080E0CCDF81E0612FC9DF1F910895C49868
:100B40008AE39FDD80E09DDDC49A08951F93182FEE
:100B5000282F30E0C9018F7190704B977CF420767C
:100B6000307045E0359527954A95E1F780918E00E4
:100B700090E02817390711F0822F8FDFC498812F5A
:100B80008F717FDD80E07DDD17FF02C080E079DDC1
:100B9000C49A1F9108950F931F93982F162F072F14
:100BA00084ED692F93DF86ED612F90DF87ED602F55
:100BB0008DDF8AEECBDF80FDFCCF1F910F91089572
:100BC0000F931F93682F84ED81DF82ED61E040E891
:100BD0003CDF8AEEBBDF80FDFCCF82ED61E040EAC6
:100BE00034DF88EDB3DF082F89EDB0DF382F20E048
:100BF00010E0022B132BC8011F910F9108958FEF66
:100C00008093910019DF88E060E060DF89E060E0B8
:100C10005DDF8AE06FEF5ADF8BE06FE057DF84E043
:100C200060E054DF85E060E151DF8CE060E04EDFA2
:100C30008DE060E04BDF8EE060E048DF8FE060E059
:100C400045DF1092F6001092F50081EC60E840EA72
:100C5000FCDE80EC6DE040E8F8DE82EC62E340E828
:100C6000F4DE80E060E070E096DF80E0A9DF90FFD6
:100C700007C082EC61E040E8E8DE84EC62E106C097
:100C800082EC61E040EAE1DE84EC65E11FDF86ECA6
:100C900062E11CDF87EC6CE019DF8AEC68EF16DF9D
:100CA0008BEC61E013DF84EE6091F9000FDF85EEDD
:100CB0006091FA000BDF82EE6091FB0007DF83EEAC
:100CC0006091FC0003DF80EE6091FD00FFDE81EEAD
:100CD0006091FE00FBDE88E363E8F8DE84E162E118
:100CE0007CE059DF8BE16BEDF1DE82E162E170E0E7
:100CF00052DF8FE164E040E8A8DE8EE160E840E882
:100D0000A4DE109291000895809191008823A9F4A7
:100D100082EC1CDF8273823331F080918F008F5F11
:100D200080938F006CDF80EC11DF8D3031F080918B
:100D300090008F5F8093900062CF0895A4E0B0E0B0
:100D4000E4EAF6E00C94F42589E300DF882309F453
:100D500086C08091F5009091F600E7DEF0DE082F66
:100D6000EEDE382F20E010E0202B312B3093F60000
:100D70002093F5007E010894E11CF11CE0DE8983DC
:100D800087010F5F1F4FDBDEF7018183D8DEF8019B
:100D90008183D5DE0F5F1F4FF801818389819A819E
:100DA0002CEFC22E2FEFD22EC80ED91E4297875E8F
:100DB000914030F40FED12E07801EC0CFD1C06C000
:100DC0001EDF4DC0BCDEF80181938F010E151F059B
:100DD000C9F7D092F800C092F7009091EB02809191
:100DE000EC02F8E080309F0761F086509840B1F443
:100DF0000E940B128091F7009091F800892B71F0FE
:100E00000CC00E94E11181E0B2D18091F700909175
:100E1000F800892B19F00E94A91266D06091F500A4
:100E20007091F600CB0101978050904130F08CE03A
:100E30006FEF4CDE8DE06FE00DC061508CE046DE60
:100E40006091F5007091F60061507040672F770F48
:100E5000770B8DE03BDE8EE160E440E8F6DD249622
:100E6000E8E00C9410261F9389E370DE882309F4D0
:100E700039C08CE16BDE182F8BE160E840EAE5DDDC
:100E800014FF04C083E19CDE81E19ADE13FF08C0F9
:100E90008CE168E040EAD9DD8DE16AE040EAD5DD29
:100EA0009FB7F8948091AA02882311F081E004C0D2
:100EB00088E08093AA0280E09FBF882399F43EDFF8
:100EC0001092AA0210FF04C08CE161E040EABDDD8F
:100ED00011FF04C08CE162E040EAB7DD8BE160E81D
:100EE00040E8B3DD1F9108951F93CF93DF9314E67D
:100EF0008FE12CDE83FD04C0112309F437C002C04A
:100F00001150B0F784E060E0E1DD85E060E1DEDD16
:100F100086E06091F700DADD2091F7003091F8006B
:100F20002050304F87E0632FD1DD80E090E1F3DD8A
:100F300080E0C2DDC0E0D0E006C0FE01E152FD4F1E
:100F40008081BADD21968091F7009091F800C81752
:100F5000D90798F38FE160E840E877DD8FE160E83A
:100F600040EA73DD8FE168E040E86FDDDF91CF910B
:100F70001F910895FC015381560F50939700272F1E
:100F800033274281420F40939600A181A0939500A0
:100F9000E081E0939400842F90E08217930748F457
:100FA0008A2F8F5F80939500882319F4EF5FE09379
:100FB0009400852F90E070708617970790F4842F27
:100FC0008F5F80939600882361F4809195008F5FF6
:100FD00080939500882329F4809194008F5F8093FB
:100FE000940008959C0141505040460F571FFB014B
:100FF0000EC0708160E08181DB01A80FB11D2A0F56
:101000003B1F2A173B0710F42F5F3F4F3296E41720
:10101000F50778F3E417F50749F4908180E0280F8D
:10102000391F2817390710F42F5F3F4FC901089562
:1010300080E090E06DEE72E044E150E0D3DF009795
:1010400019F42FEF3FEF02C0382F292FC90108955F
:101050000F931F930091F00210E004511040309163
:10106000EF0220E0020F131F9801280F311DC90164
:1010700069EF72E048E050E0B5DF61E073E0A8019D
:10108000B1DF009719F42FEF3FEF02C0382F292F5F
:10109000C9011F910F910895EBEAF2E011821082CD
:1010A000349682E0E33DF807C9F710922D011092C3
:1010B000B50110923D0280E094E090930701809387
:1010C00006011092DC041092DB041092E6041092E8
:1010D000E5041092F0041092EF041092FA041092BA
:1010E000F904109204051092030508959C01EBEA9F
:1010F000F2E0A0E0B0E080819181892B71F4AA0F29
:10110000BB1FAA0FBB1FFD01E555FD4F3183208397
:10111000A355BD4F6D937C93089511963496AA30D4
:10112000B10549F70895BC0180911001909111011A
:10113000089620DFE0911001F09111018091940058
:101140008087E0911001F0911101809195008187D5
:10115000E0911001F0911101809196008287E09159
:101160001001F091110180919700838708950F93EA
:101170001F93CF93DF93843009F44FC225E133E00E
:1011800030930F0120930E0130930401209303014B
:10119000C0911001D09111018330A1F48B8D8F701B
:1011A000833009F089C788899989892B09F084C718
:1011B00088E080930501CA57DF4FE881F981C6585E
:1011C000D04008C6823009F0A0C080910D018F5F29
:1011D00080930D01882399F480910C018F5F809397
:1011E0000C01882361F480910B018F5F80930B01C8
:1011F000882329F480910A018F5F80930A0110925D
:10120000F8001092F7001092D6041092D5042B8D9E
:10121000273011F0253041F48C8D8F5F8C8F88370B
:1012200009F04AC71B8E48C7222309F445C788899D
:101230009989892B09F461C08C8D81508C8F8F5FC7
:1012400009F03AC73D8D383029F021502230A0F402
:10125000353091F41B8E80E880930501E0911001F8
:10126000F0911101EA57FF4F0190F081E02D309786
:1012700009F4BDC50995BBC5353010F080E307C042
:1012800083E090E002C0880F991F3A95E2F78C8FB7
:101290008D8D8F5F8D8F8B8D90E08F7090708330F0
:1012A0009105D1F08430910544F48130910509F421
:1012B00094C3029709F000C70CC08630910509F469
:1012C0002BC58830910509F427C5049709F0F4C6A9
:1012D00023C510920E0384C384E080930501E0913E
:1012E0001001F0911101EA57FF4F0190F081E02DBC
:1012F000309709F4B1C50995AFC52F70233009F0B7
:10130000DBC688E0809305015CC5853019F5E09166
:101310000801F091090184819581892B09F4CCC6DB
:101320001092110110921001C9010C9790930F01B6
:1013300080930E0190930401809303011092D604D0
:101340001092D5041092F8001092F70088E0809374
:1013500005015DC18901085210408091ED0285347C
:1013600009F0AAC69091EF0280E02091F002AC0152
:10137000420F511D8091F7009091F8008417950756
:1013800008F49AC65093F8004093F7008091F30256
:1013900090E08F739070892B09F08EC68091F402D3
:1013A000882309F089C68091F6028131D1F5209118
:1013B000FD023091FE0280918000909181002817FB
:1013C000390741F48091FF02909100038F5F9F4F96
:1013D00009F48DC08091D7029091D80280959095A4
:1013E0002091DB023091DC02822B932B2091FD02B5
:1013F0003091FE0228173907A1F48091D90290910B
:10140000DA02809590952091DD023091DE02822BE8
:10141000932B2091FF02309100032817390709F41C
:1014200066C04091DB025091DC028091FD029091F8
:10143000FE028417950759F42091FF0230910003B2
:101440008091DD029091DE022817390751F0452B7B
:1014500009F032C68091DD029091DE02892B09F0FD
:101460002BC6E6DD8F5F9F4F09F026C68091F602FE
:10147000863009F438C18131D1F1813009F01CC6C0
:1014800080910103883009F017C610920103809102
:10149000030390910403EFEF873F9E0710F0099636
:1014A00001C0089690930403809303038091F9028E
:1014B0009091FA029093FE028093FD028091FB02CC
:1014C0009091FC02909300038093FF028091DB02D5
:1014D0009091DC029093FA028093F9028091DD02F0
:1014E0009091DE029093FC028093FB02E9C580910B
:1014F000F7009091F8004C979093F8008093F700D4
:1015000089E093E090930F0180930E01809107038F
:1015100090910803892B31F081E19ADD8F5F9F4F15
:1015200009F0CAC58FEF94E09093090180930801F8
:10153000409101015091020147C02481358121155C
:101540003105E9F180910303909104038217930719
:10155000B1F5268137812115310539F080910103DC
:10156000909102038217930751F520813181809178
:10157000FF00909100012817390729F48281938197
:101580008417950759F18091800090918100281768
:10159000390729F4828193818F5F9F4FF9F0809101
:1015A000F9029091FA028217930749F42091FB0205
:1015B0003091FC02828193812817390779F03A979C
:1015C000F0930901E0930801E0910801F09109010D
:1015D00084E0E73DF80708F0B0CF6EC51092110126
:1015E0001092100182E08093050189E093E09093CE
:1015F0000F0180930E0190930401809303011092D8
:10160000D6041092D504E0910801F09109010084FC
:10161000F185E02D309709F009952091D50430919E
:10162000D6042115310509F447C5C9014C9690939C
:10163000F8008093F7009093EF028093F00280E42B
:101640008093F50281E18093F602C9010896909398
:101650000503809306031092080310920703E0919C
:101660000801F09109018481958190930203809390
:1016700001038681978190930403809303038091F3
:10168000DB029091DC029093FA028093F902809140
:10169000DD029091DE029093FC028093FB02808138
:1016A00091819093FE028093FD02828193819093B9
:1016B00000038093FF0289E093E090930F018093F1
:1016C0000E0181E1C5DC809590959093080380938D
:1016D0000703892B09F0CDC48FEF9FEF9093080388
:1016E00080930703C6C486E0B3DC8F5F9F4F09F089
:1016F000E3C4C2E1D1E08B8D882329F1209103035B
:10170000309104038C819D8128173907E1F42091E1
:101710000103309102038E819F812817390799F4C4
:101720002091F9023091FA028881998128173907AE
:1017300051F42091FB023091FC028A819B81281791
:10174000390709F466C1C857DF4FF2E0C232DF073C
:1017500091F288F280910E038F73823091F4409160
:10176000030350910403ABEAB2E0FD018081918153
:101770004817590709F469C0349622E0E33DF2079F
:10178000A9F780910E0382FD97C484E1F80181A33B
:1017900088E290E09093F8008093F70080E580A3C2
:1017A0009091080380910C03838F409107038091EF
:1017B0000B03828F468F3091060380910A03818F3D
:1017C000358F2091050380910903808F248F9F5FBF
:1017D000978F992361F4842F8F5F868F882339F444
:1017E000832F8F5F858F882311F42F5F248F2091A3
:1017F0000103309102038091030390910403F801E7
:10180000958B848B378B268B8091F9029091FA020D
:101810009093FE028093FD028091FB029091FC0266
:10182000909300038093FF028091DB029091DC0291
:101830009093FA028093F9028091DD029091DE028A
:101840009093FC028093FB02F8C3E2E1F1E0C0E078
:10185000D0E020E0838D882339F488E8289FE001D8
:101860001124CE5EDE4F0EC0873039F4209721F070
:10187000948D8C8D891708F4EF012F5FE857FF4F87
:10188000233041F7209709F417C4D0931101C09376
:101890001001E0E0F0E08D919C91119748175907F5
:1018A00079F4CA57DF4FEE0FFF1FEE0FFF1FE3550E
:1018B000FD4F8081918199838883C658D04005C0AF
:1018C00031961496EA30F10531F783E08C8F8A8FD8
:1018D000188E84E0898F1D8E1B8A1A8A80910303DB
:1018E000909104039D838C83809101039091020366
:1018F0009F838E838091F9029091FA029983888365
:101900008091FB029091FC029B838A8381E08B8F04
:1019100080910A018C8780910B018D8780910C0149
:101920008E8780910D018F8781E090E0998B888B65
:10193000809108038B87809107038A878091060333
:10194000898780910503888781E090E0ECDB209116
:101950000D03822F90E0807F907081359105ECF12E
:1019600022952F7030E025503040220F331F220F78
:10197000331F90E02DC0DF01A152BD4FD6968C9150
:10198000D697882351F1813011F49F5F21C08230B6
:10199000C9F4D7968C91D7978430A1F4D8969C91AE
:1019A000D89780E0D9962C9130E0282B392BF1E0A4
:1019B0002F3B3F0710F02EEB31E03D8B2C8B3F8B04
:1019C0002E8B0BC0E152FD4F87A9882331F0980F71
:1019D000E92FF0E0E217F30774F280E180930E0341
:1019E00080910E03826080930E0382E08093150342
:1019F00084E08093160381E0809317038EEB80933D
:101A000018038CE290E09093F8008093F70080E652
:101A1000B9C2D0931101C0931001109205018091B9
:101A20000E03482F50E082FF03C01B8E80E241C2AC
:101A30002091F7003091F8002451304080910D033F
:101A400082958F70880F880F281B31093093F8001A
:101A50002093F7008B8D8F70823029F44F73507074
:101A60004231510509F1232B39F480910E0390E0A6
:101A700083709070892BC1F0909105038885981729
:101A800009F076C2909106038985981709F070C213
:101A9000909107038A85981709F06AC2909108030C
:101AA0008B85981709F064C280910E0384FF50C0A3
:101AB000688979896115710509F44AC0CE010C96CF
:101AC00059DA2091090380919400281709F040C049
:101AD00090910A03809195009817D1F590910B038E
:101AE000809196009817A1F590910C038091970032
:101AF000981771F52C87809195008D8780919600BD
:101B00008E87809197008F878D8D8823D1F4288DC3
:101B10009A8D8C8D981B822F869586958695981B1D
:101B2000392F320F388F898D282F26952695821BC5
:101B300097FD9195890F898F369536953695830F48
:101B40008A8F81E0809305018A8D8C8F198A188A8B
:101B50008B8D282F30E0C901AA2797FDA095BA2FB9
:101B60008F709070A070B070FC013197E830F10573
:101B700008F0A2C2E65DFF4F0C942126809105017A
:101B800080FF9AC283E08B8F80E480930501198ADD
:101B9000188A2091F7003091F8002115310509F4D9
:101BA0000CC180910501826080930501C901BBDAF7
:101BB00004C18091050180FF67C080910E038F737F
:101BC000823109F061C020910D03822F90E0807F67
:101BD000907081359105ECF122952F7030E0255001
:101BE0003040220F331F220F331F90E02DC0DF0142
:101BF000A152BD4FD6968C91D697882351F1813052
:101C000011F49F5F21C08230C9F4D7968C91D79789
:101C10008430A1F4D8969C91D89780E0D9962C91E5
:101C200030E0282B392B41E02F3B340710F02EEB0E
:101C300031E03D8B2C8B3F8B2E8B0BC0E152FD4F47
:101C400087A9882331F0980FE92FF0E0E217F30716
:101C500074F283E08B8F809105038887809106035F
:101C60008987809107038A87809108038B8781E0A9
:101C700090E059DA82E480930501198A188A10925B
:101C8000F8001092F70099C080E280930501E0917E
:101C90001001F0911101EA57FF4F0190F081E02D02
:101CA000309709F00995E0911001F0911101138E20
:101CB00068CD80910E0380FF33C024FD31C0888938
:101CC0009989892B09F0F8C18091F7009091F8006B
:101CD000019629DA20910501822F80618093050108
:101CE0008091F7009091F800892B19F022612093E0
:101CF0000501E0911001F0911101EA57FF4F0190A9
:101D0000F081E02D309709F0099581E090E0998B02
:101D1000888B88E08B8F1D8E81E180930E032BC111
:101D200085FF21C060911303362F20E040911403FA
:101D300050E0242B352B80910E0190910F01820FE2
:101D4000931F90930F0180930E01962F80E0842BB8
:101D5000952B2091F7003091F800281B390B309318
:101D6000F8002093F7002091F7003091F80021153A
:101D7000310551F08B8D84FD07C080910501826093
:101D800080930501C901CFD990910F0380E0209184
:101D90001003820F911D2E893F892817390710F0F3
:101DA000009709F4C9019D8B8C8B8091050190E00F
:101DB00083709070892B09F47FC11092D604109221
:101DC000D504E0911001F0911101EA57FF4F019005
:101DD000F081E02D309709F0099580910501282FB9
:101DE00085FF07C01092D6041092D5041B8E84E1A3
:101DF00094CF84FF0AC01092D6041092D50481E0DB
:101E000090E0998B888B84E085CF8091D504909168
:101E1000D604892B01F120FF02C0198A188A88890B
:101E200099890097A1F42C893D898091D5049091DE
:101E3000D6042817390720F43093D6042093D5040C
:101E40008091D5049091D604998B888B04C090938F
:101E5000D6048093D5041D8E8091030190910401D6
:101E600090930F0180930E018091D5049091D60438
:101E7000892B59F088899989009739F08896909331
:101E8000F8008093F70088E10BC08091050181FF85
:101E900013C188E290E09093F8008093F70080E10E
:101EA00080930E036EC08091050180FF05C11B8EDB
:101EB00080E180930501E0911001F0911101EA5752
:101EC000FF4F0190F081E02D309709F4F5C009959E
:101ED000F3C08091F7009091F800009709F023D9A2
:101EE00080910E039091050180FF0BC090FF06C00A
:101EF00087E08B8F1C8E198A188A18C086E08B8F1A
:101F000015C090FF26C085E08B8F198A188AD4C02F
:101F10008091F7009091F800009709F004D9809122
:101F20000E0380FF16C087E08B8F1C8E81E090E04F
:101F3000FAD880E180930501E0911001F091110140
:101F4000EA57FF4F0190F081E02D309789F0099515
:101F50000FC08091F7009091F800892B49F4ACC034
:101F60008091050180FFA8C087E08B8F1C8EA4C0E4
:101F700080E1F80181A388E290E09093F8008093DB
:101F8000F70080E580930D03888580930903898598
:101F900080930A038A8580930B038B8580930C03BF
:101FA0008C85809305038D85809306038E858093B1
:101FB00007038F858093080386E08093F6028C8167
:101FC0009D8190930203809301038E819F81909362
:101FD0000403809303038091DB029091DC029093D1
:101FE000FA028093F9028091DD029091DE029093D3
:101FF000FC028093FB02888199819093FE0280937A
:10200000FD028A819B81909300038093FF028B8D58
:1020100084FF05C01092100310920F030EC08A892E
:102020009B89009721F090930F038A8904C081E077
:1020300080930F038EEB8093100380E48093F5026E
:102040008091F8008093EF028091F7008093F00276
:1020500010921403109213031092120310921103A2
:1020600086E00E94280880959095909312038093B3
:10207000110385E48093ED021092EE021092F402B7
:102080001092F302809192009091930001969093A8
:102090009300809392009093F1028093F202109249
:1020A000F8021092F7020E9418088095909590937C
:1020B000F8028093F70204C01092F8001092F70023
:1020C00010920501DF91CF911F910F910895CF9349
:1020D000DF93C7EDD4E0D0930901C093080185E0F8
:1020E00046D88091F7009091F800892B19F031D2F1
:1020F0000E9474072A9685E0C930D80761F7DF91FE
:10210000CF910895CF93DF93C2E1D1E0D093110135
:10211000C093100182E02BD88091F7009091F800D5
:10212000892B19F016D20E947407C857DF4F82E03E
:10213000CA3AD80759F7DF91CF910895AC01FB0156
:102140001616170684F46093D504F093D6042091F4
:102150000301309104018217930729F0C901BA01E4
:10216000AF010C945C1F08956115710599F12DB7AD
:102170003EB72C5030400FB6F8943EBF0FBE2DBF77
:10218000EDB7FEB73196ADB7BEB712969C938E935E
:1021900011978BEA90E093838283758364836F5FEA
:1021A0007F4F778366836F5F7F4F718760876F5F35
:1021B0007F4F738762870E940D202DB73EB7245F43
:1021C0003F4F0FB6F8943EBF0FBE2DBF843011F4C1
:1021D00080E008958FEF0895CF93DF93DC0100979F
:1021E000E9F400D000D000D0EDB7FEB73196ADB71E
:1021F000BEB712967C936E9311975383428380E609
:1022000090E0958384830E94901FCDB7DEB7269619
:102210000FB6F894DEBF0FBECDBF32C02DB73EB7AC
:102220002E5030400FB6F8943EBF0FBE2DBFEDB715
:10223000FEB73196CDB7DEB77A8369835383428385
:102240008FEB90E0958384838C918683178211961F
:102250008C9111978087118612968C9112978287A4
:10226000138613968C91848715860E94BE1F2DB706
:102270003EB7225F3F4F0FB6F8943EBF0FBE2DBF53
:10228000DF91CF910895DC016D917C911197E8E980
:10229000F0E0AF01808191816817790749F41296C7
:1022A0002D913C911397828193812817390739F03A
:1022B0003B9680E0E03FF80761F740E050E0CA015C
:1022C0000895A0E0B0E0E7E6F1E10C94F5258C017B
:1022D000E62ED72EA8E9B0E0FD01408151814115DD
:1022E0005105F9F02281338121153105D1F0E80142
:1022F0008881998184179507A1F48A819B8182172F
:10230000930779F4EF0124968E2D9D2D9C01D90120
:1023100086E00D9009928150E1F78091F00082876C
:102320004BC03B9680E0E03FF807B9F620E0ED01B6
:102330008D919C911197892B31F412968D919C91DE
:102340001397892B19F12F5F1B96283081F7F09096
:10235000F000AF2DB0E0E2EAF0E040E070E060E0D5
:1023600050819D01251B3109872F90E0821793072B
:102370001CF47F2D751B642F4F5F3B96483081F70F
:102380008BE0689FE0011124C856DF4FF80180817F
:102390009181A281B381FE0181939193A193B19325
:1023A0002E2D3D2DC901DC0186E00D90019281505A
:1023B000E1F78091F0008A87CDB7DEB7E7E00C94B3
:1023C00011268091F9029091FA022091DB0230915E
:1023D000DC02822793272091D7023091D8028223F2
:1023E0009323892BB9F48091FB029091FC022091F8
:1023F000DD023091DE02822793272091D9023091AD
:10240000DA0282239323892B29F489EF92E065EE87
:1024100072E057CF0895CF93DF938091F7009091AA
:10242000F8008A9728F41092F8001092F7008EC0F6
:102430001092F8001092F700CFEDD2E08091F302F5
:102440009091F40221E08030920729F08050924070
:1024500009F07CC05FC02091050330910603809194
:10246000DB029091DC022817390709F06FC0209138
:102470000703309108038091DD029091DE02281756
:10248000390709F063C0CE014C96BE016A5E7F4FEA
:1024900018DF80E092E09093F4028093F302DE0173
:1024A0009096FE01769686E001900D928150E1F7BC
:1024B000A5EFB2E0E9EFF0E086E001900D928150E7
:1024C000E1F7A5EEB2E0E9EFF0E086E001900D92D1
:1024D0008150E1F7EFEDF2E0DF01909686E00D909C
:1024E00001928150E1F7EBEFF2E0928580818287E3
:1024F000919382E0EF3FF807C1F788E096E0909370
:10250000EC028093EB028AE290E09093F8008093D3
:10251000F7001CC020910503309106038091DB0277
:102520009091DC022817390789F420910703309134
:1025300008038091DD029091DE022817390731F4FB
:10254000CE014C96BE016A5E7F4FBBDEDF91CF911C
:102550000895A4E0B0E0EFEAF2E10C94FA2580914E
:10256000FD02805E8031B0F481E08093DF02109242
:10257000E0028EE58093E1028091FE028F778093E6
:10258000E2028091FF028093E30280910003809336
:10259000E402DBC04091DB025091DC02E091D70203
:1025A000F091D802CF0180959095842B952B2091A6
:1025B000FD023091FE022817390799F48091D90263
:1025C0009091DA02809590952091DD023091DE02A3
:1025D000822B932B2091FF0230910003281739079B
:1025E00091F06091FD027091FE02809184009091C3
:1025F00085006817790789F48091FF0290910003A4
:102600008F5F9F4F51F4AFEDB2E0E8E8F0E086E075
:1026100001900D928150E1F798C0462757274E232D
:102620005F23452B91F44091FF025091000380916C
:10263000DD029091DE02842795272091D902309106
:10264000DA0282239323892B69F08091D30290913F
:10265000D4029A8389838091D5029091D6029C837B
:102660008B8304C07A8369835C834B83CE0101969C
:102670000ADE009709F060C08FED92E06FEF70E026
:1026800046E050E00E94651FEFEFF2E086E0DF01D8
:102690001D928A95E9F77A97A9EFB0E086E00D9050
:1026A00001928150E1F7A5EFB2E0E9EFF0E086E0BA
:1026B00001900D928150E1F789819A8190930603F0
:1026C000809305038B819C8190930803809307037B
:1026D0008091DB029091DC029093FC028093FB02DC
:1026E0008091DD029091DE029093FE028093FD02C4
:1026F00080E091E09093F4028093F3029093EE02D5
:102700008093ED0288E090E09093F0028093EF02D6
:1027100086E08093F10284E08093F20288E096E004
:102720009093EC028093EB028AE290E09093F800A1
:102730008093F70081E022C0AFEDB2E0FC01349657
:1027400086E001900D928150E1F7A5EEB2E0E9EF4D
:10275000F0E086E001900D928150E1F788E090E092
:102760009093EC028093EB028091F7009091F80037
:102770000E969093F8008093F70080E02496E2E0B4
:102780000C9416268091F0008F5F8093F000A8E9EA
:10279000B0E012968D919C9113972D913C911197D9
:1027A000822B932B892B81F08091F00090E01A9678
:1027B0002C911A97821B9109883791052CF0FD0105
:1027C00010821182128213821B9680E0A03FB8070C
:1027D00001F7089580E090E02BE030E0829FF00167
:1027E000839FF00D929FF00D1124E856FF4F108249
:1027F00011821282138201968830910579F708952B
:102800000E94980280E090E00895A0E0B0E0EBE044
:10281000F4E10C94F2258C017B01B42EA52EDC0191
:102820008C91873121F087E18C9311961C92F801ED
:102830008181E82FF0E0EE0FFF1FEE0FFF1FEC5538
:10284000FC4F8F5FD80111968C9325913491D22E35
:10285000C32EC9010E94201FAC012B2D3A2DC901A6
:10286000EC014817590708F4EA01C7016D2D7C2DCA
:10287000AE010E94051FF8018181E82FF0E0EE0F04
:10288000FF1FEE0FFF1FEC55FC4F85919491892B94
:1028900031F086EF9FEF9C012C1B3D0BE901CE012F
:1028A000CDB7DEB7EAE00C940E262DB73EB7285020
:1028B00030400FB6F8943EBF0FBE2DBFEDB7FEB748
:1028C0003196ADB7BEB712967C936E931197538332
:1028D00042838BEC90E09583848385E690E0978338
:1028E00086830E94BE1F2DB73EB7285F3F4F0FB6AD
:1028F000F8943EBF0FBE2DBF08956F927F928F92C6
:102900009F92BF92CF92DF92EF92FF920F931F930D
:10291000CF93DF938C016B013A01FC010190002001
:10292000E9F73197E81BF90B329718F420E030E013
:102930004EC0BB248B2C9924F401EE0FFF1FEE0F29
:10294000FF1FEC55FC4FC591D491209719F1CE0192
:102950000E94201F7C01C801BE01A7010E94F81E31
:10296000892B69F4F401EE0FFF1FEE0FFF1FEA55EC
:10297000FC4F259134912115310519F40BC0B39406
:10298000D9CFC8018E0D9F1DB601A301F90109958C
:102990009C0102C02FEF3FEFC114D104C1F08FEFB3
:1029A0002F3F380751F4C6016EEC70E04BE050E069
:1029B0000E94051F2BE030E00AC02115310539F4D3
:1029C0008FE4F60180838BE4818322E030E0C9014B
:1029D000DF91CF911F910F91FF90EF90DF90CF90FB
:1029E000BF909F908F907F906F9008950F931F934B
:1029F000CF93DF93C0911001D0911101C05BDF4FE5
:102A00002881C055D04002E310E0021B11090115D6
:102A10001105D9F08091F7009091F8000817190777
:102A200008F08C0130E0225E3F4F2C0F3D1F60917B
:102A30000E0170910F01C901A8010E945C1FFE01E7
:102A4000E05BFF4F8081800F80838E01025E1F4F0D
:102A5000C05BDF4F4881C055D040C8016AE070E0DC
:102A600050E00E944F1FFC01009779F44091F7005D
:102A70005091F80080910E0190910F016AE070E092
:102A80000E944F1F009719F45DC0108205C0C15B02
:102A9000DF4F1882CF54D040FE0120E030E0868D19
:102AA0008D3009F4168E2F5F3F4F3196223331055A
:102AB000B1F78E8D813211F080E006C0CB57DF4F29
:102AC00081E08883C558D04090E04E96BE016F5A91
:102AD0007F4F8C0F9D1F41E350E00FDF9C014FEFB4
:102AE000873F940764F4CC57DF4F81E08883C45854
:102AF000D04086EF9FEFFC01E21BF30B9F01121603
:102B000013068CF4FE01E20FF31FEF5AFF4F808192
:102B1000833221F08AE080832F5F3F4FCD57DF4F14
:102B20002883C358D040CC57DF4F8881C458D04049
:102B3000882341F482E3F80111928A95E9F7C05B9A
:102B4000DF4F1882DF91CF911F910F910895CF939E
:102B5000DF93C0911001D09111018091050186FF92
:102B600011C0C05BDF4F1882E39619921992188248
:102B7000C558D040CE014E96FC0182E3DF011D9284
:102B80008A95E9F78091050180FF45C0CD57DF4F59
:102B900019928881C458D0408823E9F18E8D813202
:102BA00011F080E006C0CB57DF4F81E08883C55825
:102BB000D04090E04E96BE016F5A7F4F8C0F9D1F04
:102BC00041E350E09ADE9C01FE01EC57FF4FBFEF5E
:102BD000873F9B074CF481E0808386EF9FEFAC0139
:102BE000421B530B9A0106C01082C05BDF4F188254
:102BF000C055D0401216130674F4FE01E20FF31F05
:102C0000EF5AFF4F8AE08083CD57DF4F2F5F3F4F52
:102C10002883C358D0408091050181FF01C0E6DEC2
:102C200080910501282F30E082FD09C0C901837021
:102C30009070892B21F428743070232BA9F0CD5784
:102C4000DF4F6881C358D040662331F0CE018F5AE0
:102C50009F4F70E073DA08C0CB57DF4F888188231D
:102C600019F080E180930501DF91CF9108958AE00A
:102C70009DE867EA75E10C947608EF92FF920F9356
:102C80001F938091050180FF04C080E180930501BE
:102C900062C0E0910E01F0910F01108280910E014F
:102CA00090910F016CEE71E00E940E1F80910E0159
:102CB00090910F016CEC72E00E940E1FE0900E01EB
:102CC000F0900F01D7010D900020E9F78D01015020
:102CD00010400E191F0988E592E00E94201F00D0C5
:102CE00000D000D0EDB7FEB73196E00EF11EADB7C3
:102CF000BEB71296FC92EE9211972AED30E0338324
:102D00002283958384830E94EC1F8DB79EB706961D
:102D10000FB6F8949EBF0FBE8DBF80910E019091AB
:102D20000F016DED72E00E940E1F80910E019091D7
:102D30000F0168E572E00E940E1F80910E019091D4
:102D40000F01FC01DF010D900020E9F71197AE1B88
:102D5000BF0BBD01F3D91F910F91FF90EF90089524
:102D6000EF92FF920F931F938091050180FF04C0A3
:102D700080E18093050161C0E0910E01F0910F01A7
:102D8000108280910E0190910F0165E672E00E9421
:102D90000E1F80910E0190910F016CEC72E00E9469
:102DA0000E1FE0900E01F0900F01D7010D90002052
:102DB000E9F78D01015010400E191F098CEB92E0CC
:102DC0000E94201F00D000D000D0EDB7FEB7319692
:102DD000E00EF11EADB7BEB71296FC92EE921197BF
:102DE0002EED30E033832283958384830E94EC1F91
:102DF0008DB79EB706960FB6F8949EBF0FBE8DBFD7
:102E000080910E0190910F016DED72E00E940E1FF6
:102E100080910E0190910F016CEB72E0FFD78091D1
:102E20000E0190910F01FC01DF010D900020E9F7E8
:102E30001197AE1BBF0BBD0181D91F910F91FF9060
:102E4000EF900895E0911001F0911101878D90A10C
:102E50008D57984159F481A192A1009739F06DD610
:102E6000E0911001F091110112A211A2E091100164
:102E7000F091110110A2178E0895EF92FF920F9317
:102E80001F93CF93DF939091050195FD04C097FDAB
:102E900002C094FF02C0D6DFDEC096FF1BC0E091E7
:102EA0001001F091110110A2178EE0911001F09124
:102EB0001101868D8E7F868FE0911001F0911101B6
:102EC000868D8B7F868FE0911001F0911101868DA8
:102ED0008D7F868F8091050181FFA0C0C091100178
:102EE000D09111018F8D98A1892B19F08E8D81FFC2
:102EF00095C08091F7009091F8000A97C0F000917A
:102F00000E0110910F01C80169EF72E045E050E039
:102F1000A0D7892B61F485E0E82EF12CE00EF11E9C
:102F2000C70160E270E0D8D7FC01009729F48DE377
:102F300096E198A38F8F72C01082F8018581882353
:102F400021F4C70162EF72E074D78CEE92E078D77B
:102F5000C82FD0E0C70166EE72E0AE0192D7892B90
:102F600029F4C7018C0F9D1F15D258C0C7016FE20D
:102F700070E0CBD7FC01A0911001B0911101009736
:102F800011F0818102C0F801858193968C930091A4
:102F9000100110911101C7010E947603F80192A35C
:102FA00081A3E0911001F091110181A192A1892BDF
:102FB00029F5E70109900020E9F72197CE19DF09EB
:102FC000CE0DDF1D8A9121968F3211F08FE2899309
:102FD000CE016FED72E02DD700911001109111011B
:102FE000C7010E947603F80192A381A3E09110012A
:102FF000F091110181A192A1892B19F08DE798E13F
:103000000BC0CE15DF0509F021971882E091100161
:10301000F091110180EB96E190A3878F80910501DB
:10302000282F30E082FD09C0C90183709070892B80
:1030300021F428743070232B71F0E0911001F0918D
:103040001101278D30A12115310529F0868D81FDD3
:1030500002C0F9010995CDB7DEB7E6E00C9412265F
:103060000F931F930DE317E180E090E5B8010E94F4
:1030700076088FE190E4B8010E9476081F910F91C5
:103080000895E0911001F0911101A1A1B2A184A1D4
:1030900095A114969C938E931397E0911001F09153
:1030A000110160910E0170910F014489558981A130
:1030B00092A10E944603BC01009721F480E2809314
:1030C0000501C0CEE0911001F0911101848995892C
:1030D0006817790718F4868D8460868FE091100157
:1030E000F091110184A195A1860F971F97A386A344
:1030F00080910E0190910F0121C8A2E0B0E0E3E8B9
:10310000F8E10C94F8258091050180FF14C0E0914E
:103110001001F0911101868D80FF05C086A197A155
:1031200095A384A308C08160868FE0911001F0917F
:10313000110115A214A2E0911001F0911101868DE8
:1031400080FD97C0E0910E01F0910F0110828091F7
:103150000E0190910F0162EE70E060D6E0911001D7
:10316000F091110101A0F2A1E02D05811681011558
:10317000110579F180910E0190910F016CEC72E0D4
:103180004DD680910E0190910F01DC010D90002031
:10319000E9F71197A81BB90B00D000D000D0EDB70C
:1031A000FEB731968A0F9B1FADB7BEB712969C93A0
:1031B0008E9311978FEF92E093838283158304831C
:1031C0000BD78DB79EB706960FB6F8949EBF0FBE6D
:1031D0008DBFE0911001F091110101A0F2A1E02D4D
:1031E00014821382E0911001F091110181A192A14A
:1031F000BE016F5F7F4F42E050E00E944603E091C6
:103200001001F091110101A0F2A1E02D14821382AE
:1032100080910E0190910F0160E472E0FFD5E09182
:103220001001F091110123A1283539F480910E018C
:1032300090910F0166E571E00BC080910E019091B5
:103240000F01233519F465E071E002C06DE271E011
:10325000E5D580910E0190910F01FC01DF010D90E9
:103260000020E9F71197AE1BBF0BBD010E949E1015
:103270000BC082FF08C08091050182FD04C080E17F
:103280008093050101C0FDDE2296E4E00C94142633
:103290008091050180FF07C0E0911001F0911101BC
:1032A000868D8160868FE0911001F0911101968DDD
:1032B00090FD21C0E0910E01F0910F0110828091EC
:1032C0000E0190910F0162EE70E0A8D580910E0181
:1032D00090910F016BE871E0A1D580910E01909162
:1032E0000F01FC01DF010D900020E9F71197AE1BE3
:1032F000BF0BBD014DC08091050182FD3BC092FF17
:1033000004C080E18093050135C0CF018196ED5A5C
:10331000FF4FBF0140E350E0F0DA9C014FEF873FE1
:1033200094073CF486EF9FEFAC01421B530B9A01CC
:103330000EC00996099720F480E180930501089555
:10334000E0911001F0911101868D8460868FE091EB
:103350001001F0911101E20FF31FED5AFF4F8AE0C7
:103360008083E0911001F0911101E20FF31FEC5AFC
:10337000FF4F108280911001909111018D5A9F4F43
:10338000FC0101900020E9F73197E81BF90BBF0120
:103390000C949E10A0E0B0E0E0EDF9E10C94F5256E
:1033A000EC01E0901001F090110181E290E0E80E54
:1033B000F91E02E380E2D82E1CC0853229F08B3240
:1033C00089F4F701D08210C01B811B82CE010196C7
:1033D00060E070E040E150E008D4F70160831B83B7
:1033E000229602C0F701808301500894E11CF11C71
:1033F00021968881882319F00023F9F60CC0002358
:1034000051F0F7011082E0911001F091110188E470
:1034100099E190A3878FCDB7DEB7E7E00C94112632
:10342000FC01DB018081882321F101C0319680817C
:103430008032E1F38823E9F01C920DC09C919295B3
:10344000907F9C932081822F80538A3008F0875090
:10345000892B8C9331969081892F80538A3070F319
:10346000892F90E08F7D907081549040069730F3C3
:1034700002C0E0E0F0E0CF010895A2E0B0E0E3E4B4
:10348000FAE10C94F325DC016B01B42E8FEF8A83F3
:1034900001C011968C918032E1F3873629F0833791
:1034A00009F0C0C0EE2404C0EE24E39401C01196DC
:1034B0008C918032E1F701C0DF01FD018191803202
:1034C000D9F3808190E08F7D90708434910581F0F4
:1034D000853491052CF48134910509F0A3C00EC008
:1034E0008934910539F08F34910509F09BC004C0EF
:1034F00011E007C010E005C012E003C0FD013496E2
:1035000013E0319680818032E1F390E08F7D9070FE
:103510008E349105B4F7CF01BE016F5F7F4F80DF1E
:10352000009709F47FC04981413041F0413058F0A3
:10353000423061F0433009F075C00BC026E330E043
:103540005FE0F52E0AC029E330E005C023E330E058
:1035500002C020E330E0FF24FA941330E9F42DB7E1
:103560003EB72A5030400FB6F8943EBF0FBE2DBF75
:10357000EDB7FEB73196ADB7BEB71296DC92CE92DC
:103580001197B282138283E093E09583848346830C
:103590001782F094F08620C0B901610F711D8B0174
:1035A000EE2039F1DB018C91EDB7FEB73A970FB6FB
:1035B000F894FEBF0FBEEDBF3196ADB7BEB7129601
:1035C000DC92CE921197B282138223E033E03583EE
:1035D00024834683178280871186D0D4282F30E039
:1035E000EDB7FEB73A960FB6F894FEBF0FBEEDBF2B
:1035F0001BC0BE016F5F7F4F13DF009799F0BE01C4
:103600006E5F7F4F0DDFD8012C919A818F2D89231A
:1036100080958223298192239F21892B8C9320E0FE
:1036200030E002C02FEF3FEFC9012296E9E00C9491
:103630000F2661157105D1F12DB73EB720513040ED
:103640000FB6F8943EBF0FBE2DBFEDB7FEB7319653
:10365000ADB7BEB712969C938E93119783E193E01A
:1036600093838283758364836F5F7F4F77836683E1
:103670006F5F7F4F718760876F5F7F4F7387628750
:103680006F5F7F4F758764876F5F7F4F7787668730
:10369000C4D42DB73EB7205F3F4F0FB6F8943EBF5E
:1036A0000FBE2DBF069711F480E008958FEF0895A7
:1036B000A7E0B0E0EEE5FBE10C94F425FC017B0112
:1036C0006A0101C0319680818032E1F38E010E5F84
:1036D0001F4F8823F1F0CF01B801ABDF87FF03C094
:1036E0002FEF3FEF50C080E090E0B80146E050E09F
:1036F0000E9478020E945D02898382E190E0BE010F
:103700006F5F7F4F41E050E00E94780220E030E0A0
:103710003AC0C80160E070E046E050E00E946624D4
:103720008DB79EB742970FB6F8949EBF0FBE8DBF60
:10373000EDB7FEB73196ADB7BEB71296FC92EE92DA
:103740001197D382C28287E393E0958384838A8131
:10375000868317828B81808711868C81828713866E
:103760008D81848715868E81868717868F81808BD1
:10377000118A04D49C018DB79EB742960FB6F89477
:103780009EBF0FBE8DBFC9012796E8E00C9410269E
:10379000A5E0B0E0EEECFBE10C94F825FC0101C0E3
:1037A000319680818032E1F38E010E5F1F4F8823B6
:1037B000F9F0CF01B8010E94B410882319F02FEF5F
:1037C0003FEF26C08EE090E0B80144E050E00E9458
:1037D00078020E945D02898382E190E0BE016F5F02
:1037E0007F4F41E050E00E94780220E030E010C0BE
:1037F0008091D3029091D4029B838A838091D502D9
:103800009091D6029D838C83C8010E94EC109C018C
:10381000C9012596E4E00C941426A5E0B0E0E3E1AC
:10382000FCE10C94F825FC0101C0319680818032C6
:10383000E1F38E010E5F1F4F8823F9F0CF01B8012D
:103840000E94B410882319F02FEF3FEF26C08AE0C2
:1038500090E0B80144E050E00E9478020E945D02CE
:10386000898382E190E0BE016F5F7F4F41E050E0CD
:103870000E94780220E030E010C08091D702909141
:10388000D8029B838A838091D9029091DA029D832A
:103890008C83C8010E94EC109C01C9012596E4E0CC
:1038A0000C941426A5E0B0E0E8E5FCE10C94F825C2
:1038B000FC0101C0319680818032E1F38E010E5F00
:1038C0001F4F8823F9F0CF01B8010E94B41088235C
:1038D00019F02FEF3FEF26C086E090E0B80144E0FA
:1038E00050E00E9478020E945D02898382E190E0AC
:1038F000BE016F5F7F4F41E050E00E94780220E000
:1039000030E010C08091DB029091DC029B838A83BF
:103910008091DD029091DE029D838C83C8010E941C
:10392000EC109C01C9012596E4E00C94142608953E
:1039300080910905882309F444C01092090520915B
:10394000F1003091F2002F5F3F4F3093F20020934F
:10395000F1009FB7F8948091AA02882311F081E0CA
:1039600004C088E08093AA0280E09FBF882349F5C5
:10397000C9016AE070E00E94B425892B21F40E94FD
:1039800082100E9467108091F1009091F20062E332
:1039900070E00E94B425892B11F40E948406809166
:1039A000F1009091F20064EF71E00E94B425892B40
:1039B00031F41092F2001092F1000E94C2131092A2
:1039C000AA0208950E943307A895B2DFA89508952A
:1039D0000E94FF054CD944CB0E94E9020C940803D5
:1039E000CF93DF93BC018230910510F462E070E068
:1039F000A0910C05B0910D05ED01E0E0F0E040E094
:103A000050E021C0888199818617970769F48A81DF
:103A10009B81309719F09383828304C090930D05A6
:103A200080930C05FE0134C06817790738F44115FE
:103A3000510519F08417950708F4AC01FE018A813D
:103A40009B819C01E9012097E9F641155105A9F1F7
:103A5000CA01861B970B049708F4BA01E0E0F0E076
:103A60002AC08D919C91119784179507F9F46417DA
:103A7000750781F412968D919C911397309719F0E8
:103A80009383828304C090930D0580930C05FD0100
:103A900032964FC0CA01861B970BFD01E80FF91F34
:103AA0006193719302978D939C9343C0FD01828132
:103AB00093819C01D9011097A1F680910A059091FC
:103AC0000B05892B41F480917C0090917D009093AF
:103AD0000B0580930A0540917E0050917F004115AF
:103AE000510541F44DB75EB780917A0090917B000B
:103AF000481B590B20910A0530910B0524173507F7
:103B0000B0F4CA01821B930B8617970780F0AB01B4
:103B10004E5F5F4F8417950750F0420F531F50932D
:103B20000B0540930A05F9016193719302C0E0E02F
:103B3000F0E0CF01DF91CF910895CF93DF9300970D
:103B400009F450C0EC0122971B821A82A0910C0547
:103B5000B0910D05109709F140E050E0AC17BD079A
:103B600008F1BB83AA83FE0121913191E20FF31F7B
:103B7000AE17BF0779F48D919C911197280F391FCB
:103B80002E5F3F4F3983288312968D919C91139716
:103B90009B838A834115510571F4D0930D05C09321
:103BA0000C0520C012968D919C911397AD01009742
:103BB00011F0DC01D3CFFA01D383C283219131917B
:103BC000E20FF31FCE17DF0769F488819981280F70
:103BD000391F2E5F3F4FFA01318320838A819B81F9
:103BE00093838283DF91CF910895A0E0B0E0EAEF64
:103BF000FDE1F1C7EC012B016A016115710519F0B6
:103C0000FB0191838083C114D10449F0C60102975E
:103C1000839728F020E030E040E050E0D9C0A99040
:103C20008A2D90E0DDD0892BD1F7FDE2AF1621F48B
:103C3000A9903324339405C08BE2A81609F4A99007
:103C40003324C114D10421F0E0E1CE16D10411F5E2
:103C5000F0E3AF1669F48881883711F0883541F4B4
:103C6000A980229682E0382A20E1C22ED12C12C0EF
:103C7000C114D10479F4E0E3AE1659F199E9E92EC3
:103C800099E9F92E99E9092F99E1192F8AE0C82EAF
:103C9000D12C39C0FAE0CF16D10491F080E1C816DA
:103CA000D10429F0E8E0CE16D104F9F415C0BFEF35
:103CB000EB2EBFEFFB2EBFEF0B2FBFE01B2F23C060
:103CC000A9E9EA2EA9E9FA2EA9E90A2FA9E11A2FF2
:103CD0001AC0F8E0CF2ED12CEFEFEE2EEFEFFE2E34
:103CE000EFEF0E2FEFE11E2F0EC09601442737FD98
:103CF0004095542F6FEF7FEF8FEF9FEF49D7C901AA
:103D0000DA017C018D0120E030E040E050E060E02D
:103D10003601882477FC8094982C70EDB72EBA0C6D
:103D2000F9E0FB1570F48A2D81548A3118F499EC6E
:103D3000B92E06C08A2D81568A3140F589EAB82EFF
:103D4000BA0C8B2D90E08C159D0504F56F3FE1F0CA
:103D5000E216F30604071507B0F0CA01B901A40181
:103D60009301E3D69B01AC018B2D90E0A0E0B0E085
:103D7000280F391F4A1F5B1F281739074A075B079F
:103D800010F061E001C06FEFA990C7CF411451045A
:103D900051F0662311F0219703C031FE04C0229731
:103DA000F201D183C08330FE07C050954095309515
:103DB00021953F4F4F4F5F4F67FF0AC082E290E06F
:103DC00090930F0580930E052FEF3FEF4FEF5FEFBE
:103DD000B901CA01CDB7DEB7E1E119C7F89437C719
:103DE000911199C5803219F089508550D0F7089506
:103DF000FB01DC0104C08D910590801921F4415034
:103E00005040C8F7881B990B0895FB01DC0102C0E4
:103E100005900D9241505040D8F70895FB01DC0108
:103E20000D900020E9F7119705900D920020E1F721
:103E30000895FB01DC0105900D920020E1F7089543
:103E4000FC0105900020E9F7809590958E0F9F1F4B
:103E50000895FB01DC014150504088F08D91813480
:103E60001CF08B350CF4805E659161341CF06B3571
:103E70000CF4605E861B611171F3990B0895881B29
:103E8000FCCFFB01DC014150504030F08D9105909A
:103E9000801919F40020B9F7881B990B0895FC01CB
:103EA0004150504030F001900616D1F73197CF01C4
:103EB0000895882799270895FB01DC0102C001902D
:103EC0000D9241505040D8F70895DC0101C06D9328
:103ED00041505040E0F70895FC018191861721F090
:103EE0008823D9F7992708953197CF010895FB01C9
:103EF000DC014150504030F08D910190801919F44F
:103F00000020B9F7881B990B0895FC0181E090E02F
:103F10000190061609F4CF010020D1F7019708950A
:103F2000AEE0B0E0E5E9FFE163C60D891E898F8947
:103F3000988D97FF02C080E090E801979E838D8363
:103F40001A83098386E08C839E01255E3F4FCE0154
:103F50000196698D7A8DA90177D04D815E8157FDDB
:103F60000AC02F813885421753070CF49A01020FBB
:103F7000131FF80110822E96E4E056C6AEE0B0E0C2
:103F8000E3ECFFE135C60D891E898F89988D97FF77
:103F900002C080E090E801979E838D831A83098395
:103FA0008EE08C839E01255E3F4FCE010196698D88
:103FB0007A8DA90149D04D815E8157FD0AC02F81BC
:103FC0003885421753070CF49A01020F131FF801AA
:103FD00010822E96E4E028C6AEE0B0E0E1EFFFE10B
:103FE00007C60D891E898EE08C831A8309838FEFA3
:103FF0009FE79E838D839E01275E3F4FCE010196F2
:104000006F89788DA90120D02F813885020F131F69
:10401000F80110822E96E4E007C6AEE0B0E0E2E1DF
:10402000F0E2E8C58DE08C838B899C899A83898333
:104030009E01295E3F4FCE0101966D897E89A901BF
:1040400044D32E96E2E0F2C5ABE0B0E0E9E2F0E264
:10405000C1C53C012B015A01FC01178216828381E4
:1040600081FD03C06FEF7FEFB9C19AE0892E1E0179
:104070000894211C311CF3012381F20123FD859159
:1040800023FF81912F01882309F4A5C1853239F4DA
:1040900023FD859123FF81912F01853221F490E04A
:1040A000B3019FD4E8CF982FFF24EE249924FFE199
:1040B000FF15D0F09B3269F09C3228F4903259F011
:1040C000933291F40EC09D3249F0903369F441E08F
:1040D00024C052E0F52A84E0F82A28C098E0F92AA2
:1040E00025C0E0E1FE2A22C0F7FC29C0892F8053B9
:1040F0008A3070F4F6FE05C0989C902C1124980E1E
:1041000015C0E89CE02C1124E80EF0E2FF2A0EC056
:104110009E3229F4F6FC5FC140E4F42A07C09C36C5
:1041200019F450E8F52A02C0983649F4F20123FD4B
:10413000959123FF91912F01992309F0B8CF892FF1
:104140008554833018F08052833038F444E050E0D6
:10415000A40EB51E5FE359830FC0933631F0933739
:1041600079F0933509F052C01FC0F5018081898331
:1041700042E050E0A40EB51E610101E010E011C064
:10418000F501C080D180F6FC03C06FEF7FEF02C065
:10419000692D70E042E050E0A40EB51EC601D4D3F4
:1041A0008C015FE7F52213C0F501C080D180F6FCD9
:1041B00003C06FEF7FEF02C0692D70E042E050E076
:1041C000A40EB51EC601B5D38C0150E8F52AF3FE46
:1041D00006C018C080E290E0B30103D4EA948E2DAB
:1041E00090E008171907B0F30DC0F601F7FC8591B0
:1041F000F7FE81916F0190E0B301F3D3E110EA94EF
:10420000015010400115110581F7E2C0943611F0FC
:10421000993661F5F7FE08C0F501208131814281B0
:10422000538184E090E00AC0F501808191819C0176
:10423000442737FD4095542F82E090E0A80EB91E28
:104240009FE6F92257FF09C050954095309521957A
:104250003F4F4F4F5F4FE0E8FE2ACA01B901A1016D
:104260002AE030E004D4D82ED2183FC0953729F484
:104270001F2D1F7E2AE030E01DC01F2D197F9F36A5
:1042800061F0903720F4983509F0A5C00FC0903741
:1042900039F0983709F09FC004C028E030E00AC028
:1042A000106114FD146020E130E004C014FD1660BC
:1042B00020E132E017FF08C0F50160817181828141
:1042C000938144E050E008C0F50180819181BC01F8
:1042D00080E090E042E050E0A40EB51EA101C7D3FB
:1042E000D82ED2188FE7F82EF122F6FE0BC05EEF23
:1042F000F522D91438F4F4FE07C0F2FC05C08FEEA5
:10430000F82202C01D2D01C0192DF4FE0DC0FE01C2
:10431000ED0DF11D8081803319F499EEF92208C06A
:104320001F5FF2FE05C003C08F2D867809F01F5F66
:104330000F2DF3FC13C0F0FE0EC01E1510F09D2CC7
:104340000AC09D2C9E0C911A1E2D05C080E290E0A3
:10435000B30147D31F5F1E15C8F304C01E1510F428
:10436000E11A01C0EE2404FF0EC080E390E0B30127
:1043700038D302FF1BC001FD03C088E790E00EC0E8
:1043800088E590E00BC0802F867881F001FF02C0A5
:104390008BE201C080E2F7FC8DE290E0B30121D313
:1043A00005C080E390E0B3011CD39A94D914C8F3FC
:1043B000DA94F101ED0DF11D808190E0B30111D38C
:1043C000DD20B1F705C080E290E0B3010AD3EA94A2
:1043D000EE20C9F750CEF30166817781CB012B9691
:1043E000E2E114C4FC0120FD08C023FD05C022FF4A
:1043F00002C073836283518340830895EF92FF92DA
:104400000F931F9344FF02C033E011C046FF02C068
:1044100034E00DC0DB01FC01AA0FBB1FEE1FFF1F24
:104420001094D1F76A0F7B1F8E1F9F1F31E0660F1C
:10443000771F881F991F3150D1F77B018C01E20E45
:10444000F11C011D111DA8019701B701CA011F919F
:104450000F91FF90EF9008950F931F93CF93DF93E9
:104460008C01C8017CD2EC0197FD06C0B9DC892B18
:10447000C1F7CE01B801E1D2CE01DF91CF911F91FA
:104480000F910895A0E0B0E0E7E4F2E2ABC3EC01E5
:10449000C62E5A01122F63D2AC018B3219F08D3225
:1044A00049F41068CA9409F466C0CE0158D2AC0130
:1044B00097FD61C06DEFD62ED1228D2D8073F1F462
:1044C0004033E1F4CA9409F442C0CE0148D2AC01B1
:1044D00097FD3DC082E0D82A483711F0483551F4A5
:1044E00080E4D82ACA9499F1CE0139D2AC0199233B
:1044F0002CF42DC0D6FC02C080E1D82AEE24FF2483
:104500008701242F2053283080F0D4FC09C02A30A2
:1045100060F0D6FE05C02F7D822F8151863020F0BD
:10452000CA01BE018AD210C02750C801B7014D2D63
:1045300065DF7B018C0182E0D82ACA9459F0CE0154
:104540000ED2AC0197FFDDCFD1FC04C014C0EE2425
:10455000FF248701D7FE08C010950095F094E094E1
:10456000E11CF11C011D111DC501B801A7012D2D74
:1045700039DF81E001C080E0CDB7DEB7EAE04EC3AD
:10458000A0E2B0E0E5ECF2E229C36C01A62E8A01BC
:104590007901FE01319680E2DF011D928A95E9F7EB
:1045A00070E030E060E040E050E04F01A1E0B0E0BA
:1045B000F6018381F70183FD259183FF21917F011E
:1045C000222309F47CC02E3519F44115510569F1F7
:1045D000872F90E08417950744F42D3551F12D3243
:1045E00021F4332329F431E021C0332309F4622F6D
:1045F000322F832F869586958695F401E80FF11D5D
:10460000832F87703D0102C0660C771C8A95E2F704
:10461000208126292083361711F430E007C0361791
:1046200010F43F5FE6CF3150E4CF71E04F5F5F4F52
:10463000BFCF332319F08E8180628E83772359F0A8
:10464000FE0131969E012F5D3F4F808180958193C1
:10465000E217F307D1F7BB24B3944E010894811CF1
:10466000911CC6017CD1AC0197FD21C08695869531
:104670008695F401E80FF11D808190E09A01277082
:10468000307002C0959587952A95E2F780FD04C0A9
:10469000CA01B601D2D10BC00115110519F0D8011C
:1046A0004D938D01AA94BB24AA20D9F602C0BB2049
:1046B00031F40115110529F0F801108202C0EE2431
:1046C000FF24C701A096EEE0A5C2A0E0B0E0EAE6B4
:1046D000F3E284C25C016B013A01FC01178216828D
:1046E0008824DCC0812F90E07BDB892B19F0C50189
:1046F000B3DED4C0153249F4F601F3FC6591F3FE44
:1047000061916F01653259F415E2C50128D197FD19
:10471000D1C0181709F4C2C0B5018FD1D0C06A3218
:1047200019F0162F00E006C0F3FC1591F3FE11916D
:104730006F0101E099240EC00260692D70E080E0F5
:1047400090E040E25BDE962EF601F3FC1591F3FE5D
:1047500011916F01212F20532A3070F301FD03C006
:1047600099249A9403C0992009F4A9C0183621F01D
:104770001C3699F4F6010BC0F601F3FC6591F3FECB
:104780006191683619F06F01162F07C00860046048
:10479000F3FC1591F3FE11916F01112309F48FC001
:1047A0008CED93E0612F70E0B9D0892B09F487C0BC
:1047B000802F00FF03C0EE24FF2407C0F301E08038
:1047C000F18022E030E0620E731E1E3649F4F501DE
:1047D0004681578160E070E0C701202F03DE5EC094
:1047E000133689F481FD02C099249394C501B7D092
:1047F00097FD60C0E114F10419F0F70181937F0186
:104800009A94A1F749C01B3551F4C501692DA70140
:104810009601B6DE6C01009709F03EC038C0C501B4
:104820001BDE97FD47C01F3641F1103728F41436C0
:1048300011F1193621F524C0133719F01537F9F4A1
:104840001AC0C5018CD0EC0197FD0FC0C9DA892BC5
:1048500021F0CE01B501F1D008C0E114F10419F046
:10486000F701C1937F019A9461F7E114F104A1F07B
:10487000F701108211C0006203C0006101C0006432
:10488000C501692DA701202FFDDD882329F4F5013D
:104890008381807379F413C000FF8394F501F38062
:1048A000F601F3FC1591F3FE11916F01112309F04C
:1048B00019CF05C0882019F42FEF3FEF02C0282D33
:1048C00030E0C901CDB7DEB7EEE0A4C1DC01CB0119
:1048D000FC01E199FECF06C0FFBBEEBBE09A31962A
:1048E0000DB20D9241505040B8F70895E199FECFB6
:1048F0009FBB8EBBE09A99278DB30895262FE1992F
:10490000FECF9FBB8EBB2DBB0FB6F894E29AE19A07
:104910000FBE01960895992788270895FC010590F8
:10492000061621F00020D9F7C00108953197CF0174
:104930000895FC010590615070400110D8F78095F2
:1049400090958E0F9F1F0895FC016150704001905B
:104950000110D8F7809590958E0F9F1F0895CF93E3
:10496000DF93EC014B8140FF1AC046FF0AC04F7B2A
:104970004B838E819F8101969F838E838A81282F0E
:104980002BC042FF13C0E881F9818081282F332793
:1049900027FD30952115310529F440624B832FEF17
:1049A0003FEF1BC03196F983E88311C0EA85FB8590
:1049B000CE0109959C0197FF0AC09B812F5F3F4F55
:1049C00011F080E201C080E1892B8B83E8CF8E81DA
:1049D0009F8101969F838E8330E0C901DF91CF9143
:1049E00008950F931F93CF93DF938C01EB018B817D
:1049F00081FF1BC082FF0DC02E813F818C819D8174
:104A00002817390764F4E881F9810193F983E88371
:104A100006C0E885F985802F0995892B31F48E81B0
:104A20009F8101969F838E8302C00FEF1FEFC80105
:104A3000DF91CF911F910F9108959C01FB0183811C
:104A400080FF11C086FD0FC09FEF2F3F390759F03F
:104A5000228380648F7D83838681978101979783EA
:104A6000868330E002C02FEF3FEFC9010895FA01BD
:104A7000AA27283051F1203181F1E8946F936E7F9D
:104A80006E5F7F4F8F4F9F4FAF4FB1E03ED0B4E08E
:104A90003CD0670F781F891F9A1FA11D680F791FCF
:104AA0008A1F911DA11D6A0F711D811D911DA11DE0
:104AB00020D009F468943F912AE0269F11243019F0
:104AC000305D3193DEF6CF010895462F4770405D8B
:104AD0004193B3E00FD0C9F7F6CF462F4F70405D3A
:104AE0004A3318F0495D31FD4052419302D0A9F795
:104AF000EACFB4E0A6959795879577956795BA958F
:104B0000C9F700976105710508959B01AC010A2E54
:104B100006945795479537952795BA95C9F7620F2B
:104B2000731F841F951FA01D0895629FD001739F5E
:104B3000F001829FE00DF11D649FE00DF11D929F39
:104B4000F00D839FF00D749FF00D659FF00D992778
:104B5000729FB00DE11DF91F639FB00DE11DF91F9C
:104B6000BD01CF0111240895AA1BBB1B51E107C051
:104B7000AA1FBB1FA617B70710F0A61BB70B881FED
:104B8000991F5A95A9F780959095BC01CD0108957C
:104B9000A1E21A2EAA1BBB1BFD010DC0AA1FBB1F41
:104BA000EE1FFF1FA217B307E407F50720F0A21BB3
:104BB000B30BE40BF50B661F771F881F991F1A9420
:104BC00069F760957095809590959B01AC01BD014A
:104BD000CF0108952F923F924F925F926F927F92F2
:104BE0008F929F92AF92BF92CF92DF92EF92FF92FD
:104BF0000F931F93CF93DF93CDB7DEB7CA1BDB0BA9
:104C00000FB6F894DEBF0FBECDBF09942A8839884D
:104C100048885F846E847D848C849B84AA84B98454
:104C2000C884DF80EE80FD800C811B81AA81B98160
:104C3000CE0FD11D0FB6F894DEBF0FBECDBFED0174
:104C40000895EE0FFF1F0590F491E02D0994F8945C
:104C5000FFCF4E554C4C004E6F7620323420323010
:104C600031332031383A30343A30310020001005E9
:104C70000000FFFFFFFFFFFFFFFFFFFFFFFFFFFF42
:104C8000235374792E63004201E71F8B080085319E
:104C9000925202037590DD6AC3300C85AF9BA7303A
:104CA00094DD2D655D18ACCE7DDEC3B69444CCB1E9
:104CB00082A3FE51FAEE53D3B5648C050C917C8E21
:104CC000753E7986B3B9142BEFC25797799FA00C24
:104CD0001C395BB3AEAAAA2E568F0A11B56A3949A0
:104CE000D9BA81E2D99AC9A5A99C30535B17D7A23A
:104CF0007097873684505F0B677B3E607E76DBB6AD
:104D00009DBB079A48105E8DB32E081DF0A90000C8
:104D10005514EBC85DE03471C45BB4D10150EAAC0A
:104D2000F9184FCBA37106973B4AA5F068CDF66DF5
:104D30006E1D09A4B766F7F9A285E70CA82F0F0826
:104D4000B41F0CB0E860E3A3C2EAED2D88A748A227
:104D50002C3D01609A3996E337FA9F5828CC497E5A
:104D6000727619FF9162CE9C17CA8CF058DA11A99D
:104D7000EBC51ACF1166EF86589CBF230A9EA47418
:104D800091BA644DC02498EB05F7F60E8BC328E763
:104D900032608C93EEBEE7E3EF6704CCC5DC814B59
:104DA000AFA03CA85337056EEA157ADD343BFDCC45
:104DB00075E1E8FF3ADE178E9BBE696AF30C526913
:104DC0000E1DF90D97C1F4D834020000FFFFFFFF5C
:104DD000FFFFFFFFFFFFFFFFFFFFFFFFFFFFFFFFE3
:104DE000FFFFFFFFFFFFFFFFFFFFFFFFFFFFFFFFD3
:104DF000FFFFFFFFFFFFFFFFFFFFFFFFFFFFFFFFC3
:104E00002367722E6769668D01F21F8B080085315A
:104E10009252020373F774B3B04CE467E067D8CCE6
:104E2000CBE0EAEAFAFF150310FC3FC7F0FF24C30A
:104E3000FFFFFFFFCD65F8BF85E1FFBFC9FFFF1F83
:104E4000FFFF57F8FF53A0E06B061850FCCFEDE7CB
:104E50001A12ECEC18E06AA467C0CC0812FAC9C2B6
:104E6000CAC5C0CBA003920719CBC012B7C19333F8
:104E70006BEE8ED0690252E26C055D42739A197D29
:104E80001CD439D23F2C5BDDC6E1CAF8D86A85EA6A
:104E90009E9880E54C774A76A47C0A703C1167ADF9
:104EA000D1C869609BBCFEC016A38E4A7FEE26AFB8
:104EB000CB7FE771D87D4A606C60BA907C2AC16173
:104EC000C5F5CC99A712EB35D222C44C85051156F5
:104ED000B230B03270303003ADE4DAD011F9644F43
:104EE000D88D05E92CC8D22C0CEC40CCC0C2BDA199
:104EF000D3EDE99ACD5796FDD483683782C943B57F
:104F0000076CB9A9A2BBE561937A3F585A0424CD36
:104F1000C9C0C5C004840C2C2C1B382F2A613397C0
:104F200077C314B754C62D8DDA062FA2DA5CC12AD6
:104F300018402A40DAB8816A18586437782A4AAF8C
:104F4000350A890DFD71965DCB49936599838FEF85
:104F5000C5A888C893D2E24582E83AD8803AC436D8
:104F600078AA46AFB0085F28BDDD91A3EB943A8BD9
:104F70009A61DC4209461C4A81865B782F8D9EE14E
:104F800094D13A25C0A3B573DA130D37066B00B17F
:104F900079247DE5010000FFFFFFFFFFFFFFFFFF1A
:104FA000FFFFFFFFFFFFFFFFFFFFFFFFFFFFFFFF11
:104FB000FFFFFFFFFFFFFFFFFFFFFFFFFFFFFFFF01
:104FC000FFFFFFFFFFFFFFFFFFFFFFFFFFFFFFFFF1
:104FD000FFFFFFFFFFFFFFFFFFFFFFFFFFFFFFFFE1
:104FE000FFFFFFFFFFFFFFFFFFFFFFFFFFFFFFFFD1
:104FF000FFFFFFFFFFFFFFFFFFFFFFFFFFFFFFFFC1
:10500000236964782E6874E101251F8B08008531BF
:10501000925202038D534D8BDB3010BDFB57CCEA0F
:10502000620A5B8BBD2EB62E4B0BBD155A288580B0
:1050300070ECF10751AC204D9A0DF8C7774672D24B
:10504000402F2BA18F99797A6F6C8DEA898ECE14BF
:10505000504FD8F6BC424D3339345F68C210F11D51
:10506000BE2D3DCFDFDB116B9D430272F37280805A
:10507000AE5191AE0EE384480AA68043A37ED0B51C
:10508000EA14D0F5848D227C27DDC5A8B488E84DCC
:10509000A5DEFBFE9A88A617F30B5DE78F08E4E117
:1050A000A6FAC4C897143F9937BF8CA1A5B36B6902
:1050B000F64B7C02F8EDCFE10E8589E80411C31FA1
:1050C0000C50BEF961E054DABDC3929D788C42BBAE
:1050D00047B8F870989711EAF938420C5DA3C650AA
:1050E0008DF3A0A075D4A8D7CF9F94A9F569D364F8
:1050F0000588933FBB1E1614E2C1871109686A092F
:10510000AAAA4AA8807C761E974675B810062587FD
:10511000A5D96D7CB83D8033C5BAF50FB74730537C
:10512000586BD993464A8667EE366D64CA4B964EE5
:1051300031DE0885CD185B8066E70E84A6944D3677
:105140004B6BB5F8B2B5D3EC16E932A9E59E42CC6B
:10515000A78B552474CE22E7974CE0B09C16CBF079
:105160006FBC67BFDEA11212EE42A076E5297FCAAE
:105170009A4C2B58DE68B1B42C3BA110B7E09FEDE0
:1051800006D4022EF84E036EB7FAD507E8B9386692
:1051900017C12F7091CBC45B19CDF119EA762B6141
:1051A000A9A957AD2F974B7503543D6A651EAC5A9C
:1051B000B7A64A2593EA389882257E7AE83D4429A5
:1051C000E7CE2F14BC036AE381B9B918FFF1CFBE53
:1051D0009A4819E67AA4F9BFF18BC92F85DF437A83
:1051E000A77F0139D86595AF030000FFFFFFFFFFE0
:1051F000FFFFFFFFFFFFFFFFFFFFFFFFFFFFFFFFBF
:1052000023696F2E6874009504931F8B0800853105
:1052100092520203BD575F6FDB36107FB63E0541E9
:105220000C9304BB929DA1C596C82EB2B618F2D2BB
:105230000C6DDE86C1A0A5B3C544A63C8A4A6D0CA0
:10524000F9EEBB23255976DC2E5991C58825927736
:10525000F7BBFF4727B95917332FC94164F830D23C
:105260001430FB6072D0156CD92B7675CDDE95CAE3
:10527000E8B2486277E8258554774C4331E595D903
:105280001550E50086B35CC372CA3F9B5D9472669D
:10529000761B9872035B13A755C563E4AA522D379A
:1052A00086553A45BE5447B7D501D9ADB8178E8457
:1052B000CF92D8BDEDB9BE42E82D6B951A592A069A
:1052C000E93A9BAFC0CC651910F188A97A3D62B963
:1052D0005059013A647F7B837BA159268C6053A689
:1052E000E00BBB5EDC426A82F0C21BD06E445C788D
:1052F000448F760B451071BDC68D4BAD2F6FC536F3
:1053000022A0C097254330E6B3A165C0876F177D03
:10531000D011F37FFB70E38F2C28C23C787B75178C
:105320003B0367396C037BD66A871B88E7B4293F48
:105330001B2DD52A98BC210D35985A2B1620455483
:10534000805A999C4DA76C12B2B7CC1FFB43623CAC
:1053500027F64314EB94AAEF944DA98DD5D17EDDA9
:105360008BA2860E5D2276D06CBD65131438BE709C
:1053700027B52EF08C8CAE4E19DD08C5378E1F7CFC
:10538000ECCD932C49082BF4068386BC3B9B240967
:105390009D1CFB16C1C213666C04662419A2E1AF02
:1053A0001A2A63D5964B16D853D0BAD4DD11A1B1C1
:1053B000C665B5CA602915648D2D9443684C431A9F
:1053C00069A836A5AAE006B7F77EB66057CA0444B6
:1053D0001D55F5A232DABD4B14B7BD5E067CBCE5A7
:1053E000E1F06C74168E980D515FE12F5A1A989364
:1053F0005B5A959A24685D6DBD8C5A9CB60CF55825
:10540000969A62E18232BEC047C27EC6C7706865A6
:10541000B878655DB2B86874393B64F2A2212A1786
:10542000B748F5432033123BC06594E690DE41D681
:10543000459BFDC88209C549861478A371EB9C2D54
:105440004551C111CB1C797A4B3C7D38B07B2DAADC
:10545000BB17359BE2FD58677BE4CA3BD3D65A8E17
:105460002FFCC823D6FE011E4498C49706AB6B518F
:105470001B0878A9522CD815F011E3FBDE72BE91FF
:10548000CA96CE42A47781C96515F2AF49D0D83B00
:105490004B55EC500239CF91F59DCFC927A7F52187
:1054A000777E9F3E8F259CD2E7E138562B50A04552
:1054B0009BA6F435620E787EDC34955853D45C4359
:1054C0008A96BA5CBFCB857E576660F9D09837AFB5
:1054D0006D1B2DD37A0DCA4436FF033F3162510054
:1054E0004B0B5155532E4BBBC4EE6E34FEE7B38FBE
:1054F0001A474A6E5FDFBFFF64BB270251E9BA3F1C
:10550000EC171DC1EFD79F6E5A8AC383AB8F8FF7FD
:105510006344F09F5A468652863BA5B219454952CC
:10552000274321B822D721C1D05264B344AA4D6D7C
:10553000B0F2A67E93618D039085FBB8A680703B88
:10554000AC7C5B248B72EBB336A253BF174F623E29
:10555000F437A1FAF1ECDF80DB5CDA23B3FF0D5AFC
:10556000AAEF436E33739E2E5C0EFBACDD3A854E84
:1055700071B41B47996574687BCFF13E71508ECD35
:105580006C69F4AF049C5477E36FD46BCF4486B559
:10559000839D1E34F695C03FC1E3EF2DF60F787161
:1055A000F57A3C1EA38C232C4A8DE762399EE76373
:1055B000D96C78B6618EE9F968D4E03BB4AEDB1FF4
:1055C0004DBF7E90B139D94A3B9C3BCD6CE9331D30
:1055D000B4B7D35CFD4174C48C4ACC5DBA75BCB61B
:1055E000B4DD958E186586A37E53881482F88FF1FA
:1055F000AB5FFE8C57D85F6D9E10657B8599EE473B
:105600007FC3D50E7F14D5DCBC70E0872DDF5379C6
:10561000D0C59386AF71E937AE653D43AD6B7BD79F
:10562000E1D8DED3934599EDE8D23ED95FD5FB179B
:1056300075DCF7921428F874A7B725E10DA8C561A9
:105640002DD99AFEF6B5FA70368CD1517D0FB7C3BD
:10565000A753CB16EE7F913C7931C9672F26F9A766
:10566000274AB6CDCB6B1B12BEB4F1F012D1FC565B
:1056700092D936CA1180FD8A49CF9258205926EF17
:10568000A9D5F2A25CA5782F2DEDC08C719744347A
:10569000618FDD6FB67F003E906930BB0D0000FF6B
:1056A000FFFFFFFFFFFFFFFFFFFFFFFFFFFFFFFF0A
:1056B000FFFFFFFFFFFFFFFFFFFFFFFFFFFFFFFFFA
:1056C000FFFFFFFFFFFFFFFFFFFFFFFFFFFFFFFFEA
:1056D000FFFFFFFFFFFFFFFFFFFFFFFFFFFFFFFFDA
:1056E000FFFFFFFFFFFFFFFFFFFFFFFFFFFFFFFFCA
:1056F000FFFFFFFFFFFFFFFFFFFFFFFFFFFFFFFFBA
:10570000237363722E6A73B506131F8B08008531ED
:1057100092520203AD58EB6FDB3610FFEEBF82757D
:105720003798AE1D5B71DAAE8B9B157934ED803402
:10573000C5D67C1810048122D112533D3C8A8AA51B
:105740000DF9DF77471EF5489D761D56203275F717
:10575000BBE3BD49755566819679C67EE0321CB3C0
:10576000BF074CAE180FF3A04C45A66791D06F133E
:1057700081CBA3FAD7703C604C095DAA8C3D824076
:1057800025CB81036565922C07F78395DBE41AF836
:105790005376E727A5307BDDF98AE537B7ECC06E95
:1057A000BFB4BB03658CE499CC32A1DE5F7C3803C7
:1057B00080114265287378EB57BF95A214C0C8C406
:1057C000861D2AE5D71CE47BCCB33CF84C808F3790
:1057D000B722D088E87167093C4408A0959F1482DD
:1057E000E49542D09792963EF3CB952A5728E3DC76
:1057F000E27E182A51145316FB5998083565A9D032
:10580000710EBE86BEF69BB06EDBDB304D2094F889
:10581000B31485FE625FE63833DA0610B4EA326903
:105820006B60D2AACBB4E600CF2EBA2CB41018F815
:1058300083E4C6C6D9BA2C624E283203B30AABFB46
:10584000017B248C5A61928C3B559ABCD77A8DEEA1
:10585000983230117862F7C742628D4DA3776F2F6F
:105860004604D0F55AE42BF6C7873314FE9D42F266
:10587000044065168A95CC443842E98E7608561F56
:10588000CE5D213D21948DB10F31D17C749E1BE3FF
:105890005951AED7B9D223E39A8E55BE616FAB4052
:1058A000AC31A38FA0BA0120D5B37C2D32EEB2DD8E
:1058B000D401C601451A54A6841FD685F6B5082022
:1058C0003F91E8D40FB7F6A1C50E6FD09F10CD0E53
:1058D0000ED8730B00ADB55D182CA5D9C412FED13E
:1058E000AB5341A58766B37B16F83A883936DDFDA0
:1058F00080C4DB4427228B74CC7E611EED63F2975B
:10590000890A6BB18515B15C514132F6F5363288A2
:105910005EBB7054376BE263DE9A66316F2E86E6AB
:10592000A56BBB009564D7377745EFEE7BF929442B
:1059300016BAFEEC8C2662E34071868A200DBFB752
:10594000AB49DB035F4773D4F566C426EC1B3A7A98
:10595000D331C9A3EB20117EC6E37C93FA593D6590
:1059600037B9D679DACC4A40047956E489302373C2
:10597000D4BE9B023569CB438113A2657546747111
:10598000545FF8D1B99F0A3E0AE59D11DAC412D4DA
:105990007123D7960259600BA2A34B8934BF13C75A
:1059A00020135A914BEE6C7CC33CB6EF04AFC6A6F5
:1059B0004DFADE45509E0108417F4092BFD7BB8E15
:1059C0001585AEE179270B792313A96B1C22E60D0F
:1059D000A014875BA1FF72B3F404FA88BB007DD2E8
:1059E0009865C3C6C8BCCF4B5534CC0F32EB32E1FF
:1059F000B5D4A2E8CA6ADB161CD5BC66BB1EFA3D4C
:105A0000F230D548D9C767ABCB81516D1F8C947DDF
:105A10007C0298504EF9848DF609E2DE19BEE38BC4
:105A20004BB2282FAC50730E073032B4A03CB7D91C
:105A3000C54EC790E318819D6D3E497C16247E516A
:105A4000603560FC20BC59AE656022D840BA473052
:105A500019401DD9D34C925F572F94CAD5BFD4FE9D
:105A6000DFF58C4E450C8DB6DF8DD9BD0D04D55BB1
:105A7000BFA2FD354CF0902ADAEAC3C0A1157DA083
:105A8000CC0A38408EC42A57C221A75DC04AAA4218
:105A90001B4554AED4CD8B174DA9F7FA1D87C4B55D
:105AA00071068ED9620D5A44735578D250DA3B177D
:105AB0001DAEF48F888DE8CC2D2822A1A83EC228E7
:105AC0005AFB0AC2694336C683746777ECAE5177D6
:105AD00037791543C8F63C6FD910364078EE084147
